{
  "_format": "hh-sol-artifact-1",
  "contractName": "Coffee",
  "sourceName": "contracts/Coffee.sol",
  "abi": [
    {
      "inputs": [],
      "stateMutability": "nonpayable",
      "type": "constructor"
    },
    {
      "inputs": [],
      "name": "Coffee_Balance",
      "outputs": [
        {
          "internalType": "uint256",
          "name": "",
          "type": "uint256"
        }
      ],
      "stateMutability": "view",
      "type": "function"
    },
    {
      "inputs": [
        {
          "internalType": "uint256",
          "name": "amount",
          "type": "uint256"
        }
      ],
      "name": "Purchase_Coffee",
      "outputs": [],
      "stateMutability": "nonpayable",
      "type": "function"
    },
    {
      "inputs": [
        {
          "internalType": "uint256",
          "name": "amount",
          "type": "uint256"
        }
      ],
      "name": "Restock_Coffee",
      "outputs": [],
      "stateMutability": "nonpayable",
      "type": "function"
    },
    {
      "inputs": [
        {
          "internalType": "address",
          "name": "",
          "type": "address"
        }
      ],
      "name": "coffeeBalance",
      "outputs": [
        {
          "internalType": "uint256",
          "name": "",
          "type": "uint256"
        }
      ],
      "stateMutability": "view",
      "type": "function"
    },
    {
      "inputs": [],
      "name": "owner",
      "outputs": [
        {
          "internalType": "address",
          "name": "",
          "type": "address"
        }
      ],
      "stateMutability": "view",
      "type": "function"
    }
  ],
  "bytecode": "0x608060405234801561001057600080fd5b50336000806101000a81548173ffffffffffffffffffffffffffffffffffffffff021916908373ffffffffffffffffffffffffffffffffffffffff1602179055506064600160003073ffffffffffffffffffffffffffffffffffffffff1673ffffffffffffffffffffffffffffffffffffffff1681526020019081526020016000208190555061087a806100a56000396000f3fe608060405234801561001057600080fd5b50600436106100575760003560e01c806342a78cd21461005c578063801d07501461007a5780638da5cb5b146100aa578063cb659dcd146100c8578063cc2054f2146100e4575b600080fd5b610064610100565b60405161007191906104ee565b60405180910390f35b610094600480360381019061008f919061056c565b610147565b6040516100a191906104ee565b60405180910390f35b6100b261015f565b6040516100bf91906105a8565b60405180910390f35b6100e260048036038101906100dd91906105ef565b610183565b005b6100fe60048036038101906100f991906105ef565b610361565b005b6000600160003373ffffffffffffffffffffffffffffffffffffffff1673ffffffffffffffffffffffffffffffffffffffff16815260200190815260200160002054905090565b60016020528060005260406000206000915090505481565b60008054906101000a900473ffffffffffffffffffffffffffffffffffffffff1681565b80600160003073ffffffffffffffffffffffffffffffffffffffff1673ffffffffffffffffffffffffffffffffffffffff1681526020019081526020016000205411610204576040517f08c379a00000000000000000000000000000000000000000000000000000000081526004016101fb9061069f565b60405180910390fd5b80600160003073ffffffffffffffffffffffffffffffffffffffff1673ffffffffffffffffffffffffffffffffffffffff1681526020019081526020016000205461024f91906106ee565b600160003073ffffffffffffffffffffffffffffffffffffffff1673ffffffffffffffffffffffffffffffffffffffff1681526020019081526020016000208190555080600160003373ffffffffffffffffffffffffffffffffffffffff1673ffffffffffffffffffffffffffffffffffffffff168152602001908152602001600020546102dd9190610722565b600160003373ffffffffffffffffffffffffffffffffffffffff1673ffffffffffffffffffffffffffffffffffffffff1681526020019081526020016000208190555061035e6040518060400160405280601d81526020017f594f5520484156452050555243484153454420434f4646454521212121000000815250610413565b50565b80600160003073ffffffffffffffffffffffffffffffffffffffff1673ffffffffffffffffffffffffffffffffffffffff168152602001908152602001600020546103ac9190610722565b600160003073ffffffffffffffffffffffffffffffffffffffff1673ffffffffffffffffffffffffffffffffffffffff1681526020019081526020016000208190555061041060405180606001604052806022815260200161082360229139610413565b50565b6104a9816040516024016104279190610800565b6040516020818303038152906040527f41304fac000000000000000000000000000000000000000000000000000000007bffffffffffffffffffffffffffffffffffffffffffffffffffffffff19166020820180517bffffffffffffffffffffffffffffffffffffffffffffffffffffffff83818316178352505050506104ac565b50565b60008151905060006a636f6e736f6c652e6c6f679050602083016000808483855afa5050505050565b6000819050919050565b6104e8816104d5565b82525050565b600060208201905061050360008301846104df565b92915050565b600080fd5b600073ffffffffffffffffffffffffffffffffffffffff82169050919050565b60006105398261050e565b9050919050565b6105498161052e565b811461055457600080fd5b50565b60008135905061056681610540565b92915050565b60006020828403121561058257610581610509565b5b600061059084828501610557565b91505092915050565b6105a28161052e565b82525050565b60006020820190506105bd6000830184610599565b92915050565b6105cc816104d5565b81146105d757600080fd5b50565b6000813590506105e9816105c3565b92915050565b60006020828403121561060557610604610509565b5b6000610613848285016105da565b91505092915050565b600082825260208201905092915050565b7f4e6f7420656e6f75676820636f666665652c206e65656420746f20726573746f60008201527f636b000000000000000000000000000000000000000000000000000000000000602082015250565b600061068960228361061c565b91506106948261062d565b604082019050919050565b600060208201905081810360008301526106b88161067c565b9050919050565b7f4e487b7100000000000000000000000000000000000000000000000000000000600052601160045260246000fd5b60006106f9826104d5565b9150610704836104d5565b925082821015610717576107166106bf565b5b828203905092915050565b600061072d826104d5565b9150610738836104d5565b9250827fffffffffffffffffffffffffffffffffffffffffffffffffffffffffffffffff0382111561076d5761076c6106bf565b5b828201905092915050565b600081519050919050565b60005b838110156107a1578082015181840152602081019050610786565b838111156107b0576000848401525b50505050565b6000601f19601f8301169050919050565b60006107d282610778565b6107dc818561061c565b93506107ec818560208601610783565b6107f5816107b6565b840191505092915050565b6000602082019050818103600083015261081a81846107c7565b90509291505056fe436f66666565206d616368696e6520686173206265656e20726573746f636b65642ea2646970667358221220a892946e1c8133f75da86e575e88f5a4aac337c0701ec9cfe516cc40c410bac364736f6c63430008090033",
  "linkReferences": {},
  "deployedLinkReferences": {}
}